:020000040003F7
:10C000006F004000972100209381413917210020C3
:10C010001301417F170500001305C50A970500208D
:10C02000938545FE170600201306460D63FAC500EA
:10C030008322050023A0550011059105E3EAC5FE02
:10C0400017250000130545BE972500209385C5B12F
:10C0500017260020130606B563FAC50083220500E3
:10C0600023A0550011059105E3EAC5FE1725002020
:10C07000130545B397250020938505FA6377B5002E
:10C08000232005001105E36DB5FEFD42739002BC4F
:10C090008D42739042809302800873A00230970211
:10C0A00000209382A20593E23200739052309702EF
:10C0B0000020938222FD7390123473002030000020
:10C0C0006373B60082801C419105110523AEF5FE15
:10C0D000C5BFB727002037270020938707BA13076B
:10C0E00047016373F700828023A007009107D5BF43
:10C0F00037260020B7050020370500004111130640
:10C1000046B69385850F1305851B06C6970000006C
:10C11000E78040FB37260020B725002037250000A8
:10C12000130606BA938545B6130545C2970000006D
:10C13000E78040F9B2404101170300006700A3F90E
:10C14000411106C6B717004003C7A700418B05E79A
:10C15000130770052380E704130780FA2380E704A0
:10C1600003C7A700136707012385E7009307001E95
:10C170000100FD17F5FFB717004013077005238076
:10C18000E704130780FA2380E7041307900523943C
:10C19000E700C14637270040A302D7809D46A3038E
:10C1A000D7802380070497000000E780A0F4971051
:10C1B0000000E780800A000000000000000000008E
:10C1C000B717004003A5470A0D89791513351500E7
:10C1D0008280B73700402384A74037370040834729
:10C1E000574093F70704E5DF8280373700408347E5
:10C1F0005740858BEDDF03458740828081476393FD
:10C20000C70082803387F500834607003307F500B7
:10C2100085072300D700E5B701114EC6B7290020D6
:10C2200083A7C9BD22CC4AC852C406CE372A0020F3
:10C2300026CA56C25AC037290020A3820700832687
:10C24000CABA9947A303F9BCB727002037240020B6
:10C25000238107BE9389C9BD130979BC130ACABAE1
:10C26000130404F1D5C2034704009307500A630D79
:10C27000F708B727002083A587BAB7C70300930440
:10C28000E00F3387B6006370F702372600201306ED
:10C2900006BF094597100000E78040569374F50FDC
:10C2A0008DE423200A00834704001307500A6388A3
:10C2B000E726636FF7141307200AE38BE70663682A
:10C2C000F7041307100A638BE71883A709000347D5
:10C2D00004002380E7008347090003A70900F11742
:10C2E0002301F70083A70900A381070083A70900A2
:10C2F00023829700F2406244D2444249B249224A22
:10C30000924A024B056182809304E00F69BF1307D4
:10C31000300A6384E73A1307400AE398E7FA0347D1
:10C320001400914783443400631EF70083474400A0
:10C3300003475400A2074207BA97BE94834764009C
:10C34000E207BE94A14763F3F400A144372600201E
:10C35000930A06BA9146130606BAD145314597109D
:10C360000000E780A04983A70A008D04898013D7C5
:10C3700087013D8F1347F7FF1377F70F11EF37074B
:10C38000F0007D8FB70650006318D700A98393F79C
:10C39000F73F63F3F400BE84B727002083C757BC80
:10C3A00095EBB727002083A787BE13D787013D8F62
:10C3B0001347F7FF1377F70F11EF3707F0007D8F63
:10C3C000B70650006318D700A98393F7F73F63F3CC
:10C3D000F400BE84B727002083A647BB63F3D400D4
:10C3E000A686B20601468145054523200A0097101E
:10C3F0000000E780A0409374F50FE39804ECB727A2
:10C400000020238807BCB7270020A38107BE75BD85
:10C410001307700A6381E75463E5E7681307800A2E
:10C42000638FE7341307500CE391E7EAB727002046
:10C4300009472380E7BE8347440003475400A2070F
:10C440004207BA9703473400BA970347640062076C
:10C45000BA97372700202322F7BA2DACB7E7570049
:10C4600037270040938707402326F74037260020D0
:10C470008547B7E503002303F740930A06DFA1468B
:10C48000130606DFE115314597100000E7800037FD
:10C49000B727002003C70A00938747BD23A0570191
:10C4A000930630046397E60413871A0098C303C702
:10C4B0001A0093068004639EE60293863A0003A75F
:10C4C000090083C42A0094C383C73A0093F4F40F8D
:10C4D000A302F700B717004083C717042303F70030
:10C4E000CD47A303F7008347090089072300F9001C
:10C4F000E9BBB717004083C41704B7270020238384
:10C5000007BCB727002023A807BA83A709004D4717
:10C5100093F4F40F23200A00A382E7007DB3B7272A
:10C52000002003C7E7BE9307A003E300F7DAB727AD
:10C53000002083C707BDE39A07D803472400834739
:10C5400014008345440022075D8F83475400A205F1
:10C550006D17C207BE9583473400BE9583476400BC
:10C56000E207BE95B306B700B7C70300E3EFD7D421
:10C57000B72700209387C7BB83C8070003C31700F2
:10C5800003CE270083CE370003CF470083CF570069
:10C5900083C2670083C3770037250020A28613F685
:10C5A000F50F0148130505BFA1066361E806832660
:10C5B0000A009307F00FBA962320DA0063F8D70C2D
:10C5C00013FB05F0B72A00209306001013860ABF5C
:10C5D000DA85094597100000E78040229374F50F33
:10C5E000E39504CE83270A008146938707F0232032
:10C5F000FA0013D7270093870ABF6312D708930561
:10C600000B10B727002023A4B7BAC1B183C7160007
:10C6100083C42600937AC6FFB347F300B3449E0059
:10C62000C204A207A69783C40600AA9A2108B3C42D
:10C630009800A69783C43600B3C49E00E204A69770
:10C6400023A0FA0083C7560083CA660093044600FD
:10C65000B3C7FF00B3CA5201C20AA207D69783CA62
:10C660004600F198AA94B34A5F01D69783CA760030
:10C670002106B3CA5301E20AD6979CC035B703A678
:10C6800007108506910723AEC7FE85BF9307700389
:10C6900063F4E700814415B9F5DE37260020130660
:10C6A00006BF93F505F0094597100000E7800015D7
:10C6B0009374F50F23200A0009B903471400F547C6
:10C6C000E3F5E7C09D47B357F702B726002083C6BE
:10C6D00086BB372800208D4815438144B305F400FC
:10C6E00083C5350013962700229603453600B58D85
:10C6F0001306C8BB2301B6009945B385B702358D33
:10C700002300A600A29583C53500B58DA301B60010
:10C71000B3851703B3876702A29583C53500B58D2E
:10C720002302B600A29783C53700B3576702B58DC1
:10C730002303B6003307F400B3871703034737001A
:10C74000358FA300E6001307C8BBA29783C7370045
:10C75000B58FA302F600B717004083C71704AA9746
:10C76000A303F60081472146B306F70083C60600FF
:10C770008507B69493F4F40FE398C7FEB9B68347E0
:10C7800034001D479D8BE392E7B40347D4008345F3
:10C790007400372A0020136607047D57A307E400BE
:10C7A00003476400C205930A4ABE22072E978345B9
:10C7B00054008347E400834604012E978345840098
:10C7C00093F7F703BD8AE2052E9723A0EA0083457D
:10C7D000B4000347A4002307F400C20522072E97E4
:10C7E0008345940093E60604A2072E978345C40070
:10C7F000B72400202308D400E2052E9723A2EA00E4
:10C800003707FF003297BA97E206B7F50300B697ED
:10C81000A306C400B146138604DFD115314523A415
:10C82000FA00138B04DF97100000E78020FD03A7B8
:10C830008A0083278B00938404DF631CF70003A71F
:10C840004A00DC406317F70003A70A009C40E3039B
:10C85000F7E40347F4009307A003894A6314F70041
:10C86000930A000F37260020130B06BA91461306D1
:10C8700006BAD145314597100000E78020F883279C
:10C880000B0013D787013D8F1347F7FF1377F70F7F
:10C8900011EF3707F0007D8FB70650006318D700FF
:10C8A000A98393F7F73F63F3FA00BE8ADC4013D7FE
:10C8B00087013D8F1347F7FF1377F70F11EF370706
:10C8C000F0007D8FB70650006318D700A98393F757
:10C8D000F73F63F3FA00BE8AB727002083A647BB61
:10C8E00063F3DA00D686B206014681450545971006
:10C8F0000000E780A0F09374F50FE398049C856630
:10C900000146B7E50300054597100000E78000EFFA
:10C910009374F50F99ECB7F50300B14613064ABEC0
:10C92000D115094597100000E78040ED9374F50F8D
:10C9300089CCB7F50300B14613064ABED11531457F
:10C9400097100000E78080EB49B2B7270020054729
:10C95000A382E7BC9DBA834434009D479D886390C1
:10C96000F4148347090003A50900B72500203146C8
:10C970003E95938545BE97000000E7806088834719
:10C98000090083A60900B1072300F90083C7A600A8
:10C9900013F7F70D2385E600B717004083C7570448
:10C9A00093F70702D98F2385F60083473400A18BC4
:10C9B00085CFB726002093E484008147938686B90B
:10C9C00011463387F600034509008345070003A796
:10C9D000090085072A972300B700034709000507C8
:10C9E0002300E900E39FC7FC83473400C18BADCF30
:10C9F00037260020B7F50300372A0020930A06DF08
:10CA0000A146130606DFE1053145230C0ABA97104B
:10CA10000000E780A0DEB727002023AA57BD93E4DB
:10CA20000401A146938747BD130A8ABB98438345F7
:10CA30000900FD160346070003A709002E972300EF
:10CA4000C7000347090003A6090083450A003A9678
:10CA50000346060005072300E9002E962300CA00BE
:10CA60009043050690C3F9F2B7270020A38207BCC4
:10CA700013077005B71700402380E704130780FAF7
:10CA80002380E70403C74704814601461367070272
:10CA90002382E704238007048145114555B581446D
:10CAA00029B7834624008347140083454400A20627
:10CAB000DD8E83475400A205ED16C207BE9583475D
:10CAC0003400BE9583476400E207BE95B3E7B60025
:10CAD0009D8B639C07FE37270020034637BE130A51
:10CAE00037BE631406FE3726002022871306C6BB16
:10CAF000050763E2D702130684000D459710000076
:10CB0000E780C0CF9374F50F638104FC8547230051
:10CB1000FA006FF08FFB13F577003295034877002A
:10CB200003450500850733450501A303A700C9B7E1
:10CB30008347340005476396E70037270020230327
:10CB4000F7BCB7170040130770052380E7041307ED
:10CB500080FA2380E70403C747041377F70D238285
:10CB6000E704238007040547B72700202380E7BE9A
:10CB700015B6011106CE22CC26CA4AC84EC697F079
:10CB8000FFFFE780C066930770056314F51A97F0FE
:10CB9000FFFFE780C0659307B00A6314F5103724E0
:10CBA0000020130904F197F0FFFFE7804064AA8496
:10CBB0002300A90097F0FFFFE7806063AA94A30019
:10CBC000A90093F4F40F97F0FFFFE7804062230180
:10CBD000A90026959374F50F0149130404F18347C6
:10CBE00014006397270D97F0FFFFE780406003472D
:10CBF000140081470504631AF70C6390A40AB72751
:10CC000000209387C7EC37290020232EF9BC97F02A
:10CC1000FFFFE780A0601305500597F0FFFFE78056
:10CC2000805B1305A00A97F0FFFFE780C05A81449C
:10CC300001441309C9BDB729002003C779BC9397E4
:10CC40000401C18363ECE708228597F0FFFFE780CA
:10CC50008058B727002083C767BC91C7B72700203B
:10CC60000547A380E7BE37270020834707BE130789
:10CC700007BE85C7930740060100FD17C207C183A1
:10CC8000E5FF834707008546639DD706B737004019
:10CC9000E9462396D74023000700B7270020A38743
:10CCA00007BCF2406244D2444249B24905618280E5
:10CCB00097F0FFFFE780A053B3072401050942095D
:10CCC000A381A7001359090119BF834624008507D2
:10CCD000C207B69493F4F40FC18329BF83270900D8
:10CCE000A69703C5070097F0FFFFE780C04E832794
:10CCF0000900A69783C7070085043E941374F40FB8
:10CD00002DBF8946E39BD7F8B727002083A647BAF3
:10CD1000B7C7C90193870738B3D7D702A946950784
:10CD2000B3D7D702B7360040C207C1832396F64077
:10CD30009DB7372700201307F7BC834707008507F7
:10CD400093F7F70F2300F70093F7C70FB9DBB73757
:10CD5000004069472396E740A9B7011122CC06CECF
:10CD600026CA4AC84EC652C456C2378400408347BA
:10CD70006400898B6389073483477400094793F7FC
:10CD8000F703638AE70A636DF7066385071AB787B7
:10CD9000004003C77700930600031377070363106F
:10CDA000D72203C7770062076187635A07201307FA
:10CDB000A0FC372500202381E7029307C5E803D4B0
:10CDC000670003C7170083C60700B7240020B729F0
:10CDD0000020239484BC2385E9BC13F606069389BE
:10CDE000A9BC938484BC631E061A2946636BE61AA9
:10CDF000372600200A07130686B3329718430287A6
:10CE000093060002638AD70813072002E391E7F82C
:10CE10008347A40293F7C70F93E727002305F40283
:10CE2000B727002083C767BCB5C3B72700200547D5
:10CE3000A380E7BEA1A88347640093F70704B9C79E
:10CE400003468400B725002037250020938485E021
:10CE5000130505F1938585E097F0FFFFE780403AE1
:10CE6000B72700209384040423AE97BC97F0FFFFFC
:10CE7000E780C03AB727002083C777BC2304F402B9
:10CE80008347A40293F7C70F2305F402B787004036
:10CE900009472383E700E5BDB727002083C7A7BC68
:10CEA00095466388D70699466393D708B724002030
:10CEB00003D484BC93070004938484BC63F4870088
:10CEC0001304000437290020130989BD83290900B0
:10CED00042044180137AF40F372500205286CE8514
:10CEE0001305C5E897F0FFFFE780803183D7040082
:10CEF000818F4E942390F40023208900B78700404F
:10CF00002380470303C72702134707042381E7024F
:10CF1000B5BF83473400B726002083C6C6BC93F74D
:10CF20000708D58FA301F4002301E40285B723008D
:10CF30000402DDBF2301E4022303E40089BD83D79B
:10CF40002700372900200547A183130989BD638184
:10CF5000E70809476387E708854A814763F4870044
:10CF60002390F40003D404009307000463F48700C3
:10CF700013040004032A090042044180D285137679
:10CF8000F40F1305C5E897F0FFFFE780602783D70C
:10CF90000400229A23204901818F2390F4006383A7
:10CFA0000A06FD572380F9001307F0FCB7870040FD
:10CFB0002381E702B787004009472383E700F24057
:10CFC0006244D2444249B249224A924A056182806F
:10CFD000B7270020938747B82320F900814AC94723
:10CFE000B5BFB7270020938747B62320F900814AB1
:10CFF00093070002A5B703D72700B7270020238691
:10D00000E7BC01441374F40FB78700402380870204
:10D01000130700FC71BF372700200347D7BC2380CC
:10D02000E70033348000F9BF03D72700B72700207B
:10D03000A386E7BCF9B713F7F6018946E313D7F6E1
:10D0400083C747006381E704636CF7000547E39AF1
:10D05000E7F4378700408347670293F7370799A0C3
:10D06000130710086388E70213072008E39BE7F221
:10D07000378700408347A70293F7C70B93E7270042
:10D080002305F702BDBF378700408347A70293F708
:10D090003707FDB7378700408347670293F7C70B11
:10D0A00093E727002303F702A9BF2380070095BF5A
:10D0B000239007000947A287637387008947139469
:10D0C0000701418081B783476400858B8DCBB727EB
:10D0D0000020A38807BC89472301F402C947230520
:10D0E000F402B7270020238207BCB7270020A385BE
:10D0F00007BCA301040085472303F400C9B5914789
:10D10000E5BF371700402320070A231D0700B78714
:10D11000004023800700A38107008326470B0D668C
:10D12000F59A232AD70AB146A386D700B72600204E
:10D130009386C6E8C206C1822398D700B72600208E
:10D14000938686E0C206C182239CD7009306900294
:10D150002380D70083568701D18E231CD700130765
:10D1600000F8A380E7007D572383E7001D47238154
:10D17000E70003C7170013671700A380E700B7276E
:10D180000020238107BEB7270020A38007BE82802E
:10D19000B7270020238007BE0547B7370040238705
:10D1A000E74069472396E740130710F82381E740DB
:10D1B0000D47A381E74013075004A380E74003C74E
:10D1C0000740136787002380E740371700408357E5
:10D1D000A701C207C18393F707FCC207C183231DC0
:10D1E000F7008357A70193E72701231DF7008280EB
:10D1F000B717004003A7070A411106C622C426C27A
:10D20000719B23A0E70A03A7470B1367270023AAF4
:10D21000E70A97F0FFFFE780E0FA0DC901449304A5
:10D22000300697F0FFFFE780E0F901CD0504E3DA6F
:10D2300084FE2244B240924441011703000067007B
:10D2400083EC97F0FFFFE780E0F761FDB2402244F6
:10D250009244410182805D71B7270020372700206A
:10D26000CAC0A38107BE372900208547A300F9BEA5
:10D270002308F7BCB727002052DC56DA238307BC0B
:10D28000372A0020B7270020B7FA0300A6C24EDED7
:10D290005ED662D4B7240020B72B0020B729002027
:10D2A000372C002023A607BAB146B7270020130663
:10D2B0004ABE93854AFF3545A2C4238104BEA3829A
:10D2C0000BBC238709BCA3080CBC23A807BA86C6DD
:10D2D0005AD866D26AD06ECE13044ABE97000000B8
:10D2E000E780C0511C407D57938424BE130919BEAA
:10D2F000938B5BBC9389E9BC130C1CBD6395E72839
:10D3000054401844758F630EF700639EF6269146CD
:10D31000130684009385CAFF314597000000E7801B
:10D32000E04D372B0020914613060BBAD14531450D
:10D3300097000000E780804C930A0BBA83A70A008D
:10D34000930D0BBA13D787013D8F1347F7FF137760
:10D35000F70F09EB3707F0007D8FB7065000A18368
:10D360006303D7005C40B7F60300D04A372700209C
:10D370001307C7BB2300C700904E858BA300C700CF
:10D38000372700201306C003232AC7BAD852B7266E
:10D39000002023A8E6BE3D8B95466315D7000547C0
:10D3A0002380E900B716004003D6860171777D1708
:10D3B000718F239CE600638F071C97000000E780B5
:10D3C00060DDE9572380F40023000900B7270040FF
:10D3D00009472380E74037A70E001307076023A6FD
:10D3E000E740FD562383D74083C62740B72A002055
:10D3F000014D93E616002381D74091462380D74004
:10D40000AD679387A7AA854C938A0ADF3AC43EC6C4
:10D41000834709006395972163000D1A914613060F
:10D420000BBAD145314597000000E780203D03A7A6
:10D430000D0093578701B98F93C7F7FF93F7F70F45
:10D44000F5EFB7240020B7F50300B146138604DFDB
:10D45000D115314597000000E780403A03C70D0021
:10D46000930700049376070D639EF6001C4493F621
:10D47000F70F6389E60093F707F0D98F1CC485473F
:10D480002380FB00938404DF98441C446308F70A5C
:10D49000B7170040130770052380E704130780FACD
:10D4A0002380E70403C74704814601461367070248
:10D4B0002382E7048145238007041145970000007B
:10D4C000E780C03385660146B7E503000545970050
:10D4D0000000E780A0320DE91C4437070040B7F593
:10D4E000030092079183D98F13D787001CC4B146DC
:10D4F0009377070C13064ABED1150945A304F4001F
:10D5000097000000E780802F814601468145114544
:10D5100097000000E780802EB717004013077005C2
:10D520002380E704130780FA2380E70403C7470436
:10D530001377F70D2382E704238007043714004094
:10D54000231D0400814601468145114597000000D6
:10D55000E780C02A930770052300F404930780FA3C
:10D560002300F40483C70B0081C7FD572316F40280
:10D57000B717004003C76704136717002383E70446
:10D580002380070401A0B7F50300B14613064ABE85
:10D59000D11559B383C70900E39A07E283C766042C
:10D5A000858B91C797000000E780E0B505B597002F
:10D5B0000000E78020C419BDC14656868145354527
:10D5C00097000000E780802303A74A0083A70A0092
:10D5D000F98F03A78A00F98F03A7CA00F98F7D5737
:10D5E000639EE70C83C7090095E397000000E7807E
:10D5F00080B12247B727004023A6E7402383974105
:10D6000023009C018347090091CB09BD97000000CE
:10D61000E78040B82380040023000900054D83C73C
:10D62000090099EBB787004083C767009D8B89C7C6
:10D6300097F0FFFFE780A072B737004083C75740DD
:10D64000858B9DC3B717004003A7870A1367270080
:10D6500023A4E70A03A7070A1367270023A0E70A02
:10D6600097F0FFFFE7802051B726004083C7664050
:10D67000858B99CF05472383E64083C70400930633
:10D68000900F63F4F6002300E90085072380F4007F
:10D6900083470C00639F970183C704001307200C86
:10D6A000ED1793F7F70F6366F70097000000E78028
:10D6B000A0503247B717004098C399BB83C70900F1
:10D6C000B1F3B717004083C76704858B91C79700F4
:10D6D0000000E78040A33DB797000000E78080B1DD
:10D6E00015B7230304801547A2872303E4800100B4
:10D6F0002302A48003C7678062076187E34C07FEAB
:10D700002382A78082802303048015472303E480BB
:10D7100001002302A480828083076480E3CE07FE99
:10D7200023030480828083076480E3CE07FE0345E1
:10D730004480828083076480E3CE07FE2302A480B6
:10D740008280411126C44AC24EC006C61377F50B2B
:10D75000AD47AA892E899544630CF70019459700B7
:10D760000000E78080FA97000000E78020FB8D44EE
:10D770004E8597000000E78040F9FD59FD1463983D
:10D780003401B240A24412498249410182801355BA
:10D7900009011375F50F97000000E780E0F92209F1
:10D7A000F1BF011126CC06CEB70408009700000097
:10D7B000E780C0F6154597000000E78000F5970068
:10D7C0000000E78080F697000000E78000F62AC698
:10D7D00097000000E78080F432459377150089EBCD
:10D7E000136515001375F50FF240E2440561828060
:10D7F000FD14E9F00145CDBF797126D44AD24ED04F
:10D800005EC806D652CE56CC5ACAAA89AE8B328989
:10D81000B68422C637240040B7E700E07D5783AACC
:10D82000070003AA470023A0E71823A2E718371B25
:10D830000040930770052300FB04930780FA230040
:10D84000FB0483474B0411471305F00F93E7070EC2
:10D850002302FB042303E48097000000E780A0E894
:10D8600097000000E78080EB938779FF93F7F70F2D
:10D870000947636FF712B7470300BE9B37C7030022
:10D88000795563FAEB04B3879B006366F704A947F5
:10D890006393F90881E8814497000000E78000E87D
:10D8A000268515A8DE85094597000000E780A0E9D8
:10D8B00005090345F9FFFD14850B97000000E7807B
:10D8C000A0E781C493F7FB0FE5F797000000E7801E
:10D8D00080ED69F17D55B71700401307700523806F
:10D8E000E704130780FA2380E70403C74704418B4A
:10D8F0002382E704B7E700E023A0571123A24711D2
:10D900003244B250A25412598259724AE24A524BDE
:10D91000C24B45618280A547639BF906856913095F
:10D92000F00FB3069900B3F42B01B6941349F9FF35
:10D93000B3749900416B33797901856B9387F9FF53
:10D94000B3F7270199E363FC340193D94900C14738
:10D95000E3E637FF89B70569C1697D19D9B71305B2
:10D96000800D638869011305000263847901130542
:10D970001008CA8597000000E780E0DC97000000EF
:10D98000E78060E221D94E99B38434416DBFDE85D2
:10D990002D4597000000E78000DBCA94E30D99EE67
:10D9A000050997000000E78040D8A30FA9FEFDB746
:10D9B000B1476392F904370704007955E3FDEBF0B2
:10D9C000B3879B00E369F7F0DE852D4597000000E3
:10D9D000E78060D7FD59FD14E38F34EB970000001A
:10D9E000E780A0D493F73400FDF783270480110962
:10D9F000232EF9FECDB7B547639EF9023707040021
:10DA00007955E3FAEBECB3879B00E366F7ECDE8530
:10DA10002D4597000000E78000D3CA94E30D99E6F6
:10DA200097000000E78060D0834744800509A30F7A
:10DA3000F9FEEDB79387F9FF93F7F70F6368F70ADD
:10DA400003475B04B70704001377070219E3B7C75E
:10DA500003007955E3F1FBE833879B00E3EDE7E64C
:10DA600089476396F9048980D549E38604E2DE8517
:10DA7000094597000000E78000CD11090327C9FF81
:10DA800091472320E48003076480E34E07FE2303CD
:10DA90003481FD17EDFBFD14910B81C493F7FB0F4F
:10DAA000E9FF97000000E78000D061F125B58547C8
:10DAB000E383F9EADE852D4597000000E780A0C8E2
:10DAC0009389F4FFE38904DC97000000E780E0C558
:10DAD00093F7390091EB832604800327090093070D
:10DAE0004900E39BE6DA3E89CE84D9BF9947639724
:10DAF000F904B7050400B3E5BB002D45970000000D
:10DB0000E78060C481440D4BA14997000000E78085
:10DB1000C0C163966401832704802320F900850433
:10DB2000E39534FF8327048013972B016355070087
:10DB30002312F9008DB32322F900B1BB9D47639FE7
:10DB4000F90281451305B00497000000E780A0BFEB
:10DB5000BD442320090023220900FD59970000003D
:10DB6000E780A0BC93F77400CA9703C70700FD14B1
:10DB7000398D2380A700E39334FF31BBA147E38CA9
:10DB8000F9D091476393F9021305600697000000EE
:10DB9000E780A0B797000000E78040B81305900920
:10DBA00097000000E78060B6FDB1E38609CEF1542E
:10DBB000E5B10000B717004083A7470A858B9DCBCE
:10DBC0009947B716004003A7460A058B01C7FD1702
:10DBD000FDFB82809947371700408326470A858AD4
:10DBE00081CA835787019166D58F231CF7008280F5
:10DBF000FD17E5F782800000F00F0020760F00206F
:10DC0000E20E0020E20E0020E20E0020360F00207F
:10DC10007E0E0020E20E0020560F0020680F00202C
:10DC2000EA0F0020090220000101008032090400EF
:10DC30000002FF8055000705820240000007050230
:10DC40000240000012011001FF805540861AE05585
:10DC5000002300000001000000020300000000009B
:10DC6000A9BDF9F3A9BDF9F3A9BDF9F3A9BDF9F36C
:10DC7000A9BDF9F3A9BDF9F3A9BDF9F3A9BDF9F35C
:10DC8000A9BDF9F3A9BDF9F3A9BDF9F3A9BDF9F34C
:10DC9000A9BDF9F3A9BDF9F3A9BDF9F3A9BDF9F33C
:04DFE000A9BDF9F3EB
:00000001FF
