:020000040007F3
:108000006F00400097310020938141CE174100203E
:10801000130141FF1305800897050020938585FE15
:10802000170600201306860A63FAC500832205009E
:1080300023A0550011059105E3EAC5FE1385818053
:10804000938581D66377B500232005001105E36D84
:10805000B5FEFD42739002BC8D4273904280930244
:10806000800873A00230970200209382220693E2D8
:1080700032007390523097020020938282FE7390F8
:1080800012347300203000006373B60082801C41FC
:108090009105110523AEF5FEC5BF93878180138737
:1080A00081D66373F700828023A007009107D5BFB4
:1080B00041111726000013066642970500009385BC
:1080C00065091305001506C6C137138681809725FB
:1080D00000009385A540172500E01305A5486D37DE
:1080E000B24041015DBFB7170040984B411106C631
:1080F0001367070198CB130770052380E704130764
:1081000080FA2380E70403C7A7001367670123856C
:10811000E700238007049307000F0100FD17F5FF18
:10812000B7170040130770052380E704130780FA90
:108130002380E7048D4637270040A303D780130729
:10814000D0142394E700238007049D37EF10E07FCD
:1081500000000000000000000801002008010020CD
:10816000A9BDF9F308010020000000000000000094
:1081700008010020080100200000000000000000AD
:10818000080100200000000008010020000000009D
:1081900001A0B717004003A5470C2D8105898280F7
:1081A000B717004003A5470C5981134515000589F1
:1081B000828083C7F18589CFB73700402384A740E9
:1081C000373700408347574093F70704E5DF828045
:1081D000B73700402384A700373700408347570054
:1081E00093F70704E5DF828083C7F18537370040C6
:1081F00091CB83475740858BEDDF0345874013754F
:10820000F50F828083475700858BEDDF034587009C
:10821000FDB781476393C70082803387F5008346AB
:1082200007003307F50085072300D700E5B70111E4
:108230004EC69389418583A709004AC81389818165
:1082400006CE22CC26CA52C456C25AC08326090082
:10825000A38207009947A38BF182238F018483C7F0
:1082600001C6A5C21307500A638DE70493874181B5
:108270008C43B78707001304E00F3387B600637D94
:10828000F7001386C1870945EF10503C1374F50FB2
:108290006314040E23AC0180938401C683C70400D9
:1082A000130740029387F70593F7F70F6366F70C00
:1082B00017270000130787138A07BA979C43BA97BA
:1082C00082871387018214438DC61307A00A130403
:1082D000E00FE383E7FC9387C1818C431386C1875A
:1082E0002945EF10B0361374F50F59E423AE018021
:1082F00065B71304E00F4DB7B7D7AF00372700407D
:10830000938707805CC79384C1A78547B7C50700DB
:108310002303F700A1462686E1153145EF101033FF
:1083200023A6918483C704009306300403C7018108
:108330006393F6089387D1A723A6F18483C714001B
:10834000930680046399F60683A709009386F1A734
:1083500003C4240023A6D18483C634002383E7000A
:108360005947A383E700A382D70083C77183890796
:108370001374F40FA38BF18283A7090003C701C60E
:108380002380E70003A7090083C77183F117230146
:10839000F70083A70900A381070083A709002382B0
:1083A0008700F2406244D2444249B249224A924A8A
:1083B000024B05618280238B018223AC018023A0C4
:1083C000018283A709003A845947A382E7006DB769
:1083D000938701879C4793F70709D9FF83C7A18437
:1083E000C1FF03C721C683C711C622075D8F83C59E
:1083F00041C683C751C6C207A205BE9583C731C611
:10840000BE9583C761C6E207BE956D17B306B70078
:10841000B7870700E3F2F6F683C8C18203C3D182AF
:1084200003CEE18283CEF18203CF018383CF118318
:1084300083C2218383C33183938601C613F6F50F6C
:1084400001451388C187A106636AE50483260900F4
:10845000BA9623ACD1809307F00F63F0D70C93F456
:1084600005F0930600101386C187A6850945EF1015
:10847000F01D1374F50FE31104F083270900814602
:10848000938707F023ACF1801387C1878983639FAB
:10849000D7069385041023AAB180F9BD83C71600BF
:1084A00003C426009374C6FFB347F30033448E0021
:1084B0004204A207A29703C40600C294210533C454
:1084C0008800A29703C4360033C48E006204A297CA
:1084D0009CC083C7560083C4660013044600B3C71C
:1084E000FF00B3C49200C204A207A69783C446004B
:1084F00071984294B3449F00A69783C476002106E6
:10850000B3C49300E204A6971CC035BF032607102E
:1085100085061107232EC7FE9DBF9307700363F4E2
:10852000E700014491BDF5DE1386C18793F505F0A0
:108530000945EF10B0111374F50F23AC01802DBD68
:1085400003C621C683C711C622065D8E83C541C6F8
:1085500083C751C6C207A205BE9583C731C6BE9563
:1085600083C761C6E207BE956D163307B600B787AD
:108570000700E373F7E083C8C18203C3D18203CE4F
:10858000E18283CEF18203CF018383CF118383C243
:10859000218383C33183138701C693F6F50F014509
:1085A0001388C1872107636CC50413890182832660
:1085B0000900B29623A0D1829307F00F63F0D70C85
:1085C00093F405F0930600101386C187A68529450C
:1085D000EF10D0071374F50FE31004DA83270900B6
:1085E0008146938707F023A0F1821387C18789838F
:1085F000639FD7069385041023AEB180B5BB834734
:1086000017000344270093F4C6FFB347F300334435
:108610008E004204A207A29703440700C2942105DA
:1086200033C48800A2970344370033C48E00620429
:10863000A2979CC083475700834467001384460079
:10864000B3C7FF00B3C49200C204A207A697834435
:10865000470071984294B3449F00A69783447700E3
:10866000A106B3C49300E204A6971CC025BF03264D
:10867000071085061107232EC7FE9DBF93077003C1
:10868000E3E1C7EAE38F06E81386C18793F505F0B7
:108690002945EF10A07B1374F50F23A00182E9B9DF
:1086A00003C711C6914703C431C6631EF70083C7D1
:1086B00041C603C751C6A2074207BA973E9483C773
:1086C00061C6E2073E94A1476373F400214493849A
:1086D000818091462686D1453145EF1020779C4018
:1086E0000D04098013D787013D8F1347F7FF1377D8
:1086F000F70F11EF3707F0007D8FB70650006318B2
:10870000D700A98393F7F73F6373F4003E8483C7D0
:1087100051838DEB93870187DC4313D787013D8F0E
:108720001347F7FF1377F70F11EF3707F0007D8F2F
:10873000B70650006318D700A98393F7F73F637318
:10874000F4003E849387418294436373D400A286ED
:10875000B20601468145054523AC0180EF10006F4C
:108760001374F50FE31A04C0238501842380018666
:1087700021B183C541C683C751C6C207A205BE95B4
:1087800083C731C6BE9583C761C6E207BE9503C7DE
:1087900011C6A14783C671C6631EF70083C781C691
:1087A00003C791C6A2074207BA97BE9683C7A1C660
:1087B000E207BE96AA060146254523A00182EF10D6
:1087C000E0681374F50F4DBE03C711C6F547E3F516
:1087D000E7BA9D47B357F70283C6818213962700F5
:1087E000269683453600B58D2386B1823386F40004
:1087F00003463600358E2387C18219463386C70269
:10880000269603463600358EA387C1820D453386F2
:10881000A702269603463600358E2388C182154668
:108820003357C702B387C702A69783C73700B58FF0
:108830002389F182B387E4003307A70283C7370097
:108840000144B58FA386F1821386C182BA9483C78F
:108850003400BD8EA388D18283C70181AE97A389DE
:10886000F182A14681473307F600034707008507D9
:108870003A941374F40FE398D7FEFDBC83C7340019
:108880001D479D8BE39AE7AE83C6040183C7D400DE
:1088900003C7E40093F6F60613E507049375F703A0
:1088A00093E6060403C761C603C671C6A386A1C6C4
:1088B0002387B1C62388D1C64206220783C751C683
:1088C000329703C681C63E976206329723A8E18697
:1088D00003C6B1C603C7A1C64206220783C791C615
:1088E000329703C6C1C63E976206329723AAE18635
:1088F00083C7F1C6C20713978500AA97BA97E20605
:108900001389C1A7B7F50700B6974A86B146D115B6
:10891000314523ACF18693840187EF1020539844AE
:1089200083278900631CF700D84083274900631719
:10893000F700984083270900E305F7BE83C7D1C637
:10894000139787016187414463460700C18B09443F
:1089500091C341449384818091462686D145314517
:10896000EF10C04E9C4013D787013D8F1347F7FF90
:108970001377F70F11EF3707F0007D8FB706500020
:108980006318D700A98393F7F73F6373F4003E841D
:108990008327490013D787013D8F1347F7FF1377CC
:1089A000F70F11EF3707F0007D8FB70650006318FF
:1089B000D700A98393F7F73F6373F4003E8493874E
:1089C000418294436373D400A286B2060146814576
:1089D0000545EF10A0471374F50FE31F0498856653
:1089E0000146B7E507000545EF1040461374F50F43
:1089F00009ECB7F50700B14613860187D115094583
:108A0000EF10C0441374F50F01CCB7F50700B14661
:108A100013860187D1153145EF1040436FF0DF9584
:108A20008547A38AF1826FF03F9503C434009D47C8
:108A30001D886314F41203A5090083C771833146AE
:108A40003E9593850187EFF0CFFC83A6090083C78D
:108A50007183B107A38BF18283C7A60013F7F70DCB
:108A60002385E600B717004083C7570493F7070232
:108A7000D98F2385F60083C73400A18B95CF13646B
:108A800084008147172800001308C8AE138671833D
:108A900091463307F8008345070003A7090003C583
:108AA000718385072A972300B7000347060005074F
:108AB000A38BE182E39FD7FC83C73400C18BADC792
:108AC0009384C1A7B7F507002686A146E105314585
:108AD00023840182EF1080371364040123A691845C
:108AE00021471386C184138581821C4283C571830B
:108AF0007D1783C6070083A70900AE972380D700A0
:108B000083A6090083C7718383450500BE9683C68B
:108B100006008507AE962384D1821442850623A6DB
:108B2000D184A38BF18271F3A38A0182B71700402D
:108B3000130770052380E704130780FA2380E704F6
:108B400003C7470481460146136707022382E704EF
:108B50002380070481451145C1B5014429BF83CA5B
:108B600021C683C711C6A20AB3EAFA0003C941C6E7
:108B700083C751C6C20722093E9983C731C63E99B1
:108B800083C761C6E207138BBAFF3E99336A2B0194
:108B9000137A7A0063120AFE83C70186639E07FC7C
:108BA000138701C61386C182050763EB6709DA865E
:108BB000138681C6CA850D45EF1040291374F50F41
:108BC000E3010496894763E1870A61195A99A1462E
:108BD0001386C1A7CA853145EF1040271387C1A767
:108BE000B38754013A8BCD1AA1463306470183451A
:108BF000060003C6B7FF6396C500050A8507E3169E
:108C0000DAFED2879D461306F00F13F7F70F63F5D0
:108C1000E604A147631AF704A1461386C1A7CA85D3
:108C20003545EF10A022A1471307F00FE30BFA8E92
:108C3000B3064B0183C606006398E602050AFDB73A
:108C400093F67700B2968345770083C606008507C2
:108C5000AD8EA303D70089BF8507338757012697B9
:108C600003477700E303C7FA85472380F1866FF057
:108C7000AFF083C541C683C751C6C207A205BE95E2
:108C800083C731C6BE9583C761C6E207BE9583C65A
:108C900071C63387B600A16763E0E7EE03A609005B
:108CA00083C771832D453E96EF10401A83C7740029
:108CB00003C77183BA97A38BF1826FF09F8683C736
:108CC00041C69305200C03C631C603C751C683C6EF
:108CD00061C6639CB70085456319B7003364D6004D
:108CE00009E4238EE1846FF02FE94207A207BA97C7
:108CF000B297E2068945B697238EB18423A6F18008
:108D00006FF03F8283C731C605476394E700238B2A
:108D1000F182B7170040130770052380E70413079B
:108D200080FA2380E70403C747041377F70D2382F3
:108D3000E704238007048547238EF1846FF06FFEDC
:108D4000011106CE22CC26CA4AC84EC6EFF0CFC9C2
:108D5000930770056316F51CEFF00FC99307B00A6F
:108D60006313F50CEFF04FC82A842380A1C6EFF0FF
:108D7000AFC72A941374F40FA380A1C6EFF0CFC637
:108D80002381A1C6138901C622951374F50F81446E
:108D9000CA8983C711C6639F9708EFF0EFC483C6E3
:108DA00011C6138701C681470507639FF60863153F
:108DB000A4129387C1C123AAF184EFF04FC7130512
:108DC0005005EFF00FBF1305A00AEFF08FBE8144EE
:108DD0000144138941859397040103C77183C183BB
:108DE00063EDE7062285EFF0CFBC83C7618381C7BF
:108DF0008547A38EF18483C7C18505476396E7083D
:108E0000930740060100FD17C207C183E5FF238ECB
:108E1000018483C7F185BDC3B737004069472396F6
:108E2000E740A3840184F2406244D2444249B249FB
:108E300005618280EFF04FBBB30799008504C2043F
:108E4000A381A700C180B1B7034627008507C207E9
:108E500032941374F40FC18381BF83270900A6974E
:108E600003C50700EFF0EFB483270900A69783C777
:108E7000070085043E941374F40FB1BFB737004068
:108E800069472396E70071BF0947E39CE7F893071A
:108E900040060100FD17C207C183E5FF9387C1802B
:108EA0009843B7C7C90193870738B3D7E702238E22
:108EB000018429479507B3D7E70203C7F185C207A5
:108EC000C18311C7373700402316F74099BF3737A2
:108ED00000402316F700B1B713055005EFF06FAD52
:108EE0001305A00AEFF0EFAC03C501C6EFF06FACBD
:108EF0000145EFF00FAC0945EFF0AFAB0145EFF0E6
:108F00004FAB1305200FEFF0CFAA0145EFF06FAA8A
:108F100003C5090051151375F50FEFF08FA911B7AF
:108F200083C79184850793F7F70FA384F18493F7A0
:108F3000C70FE38A07EE83C7F18599C7B7370040AB
:108F400069472396E740C5B5B73700406947239680
:108F5000E700D1BD011122CC06CE26CA4AC84EC6B2
:108F60003784004083476400898B638B072E8347D7
:108F70007400094793F7F703638BE7086362F7060A
:108F8000638B0714B787004003C77700930600037D
:108F9000137707036314D71C03C777006207618741
:108FA000635E071A1307A0FC2381E70203D4E1B133
:108FB000239C818283C791B1238DF18203C781B144
:108FC00093760706639E0616A94663EBF616971678
:108FD00000009386E64A8A07B6979C43B697828735
:108FE000930600026388D70613072002E39CE7F884
:108FF0008347A40293F7C70F93E727002305F402E2
:1090000083C76183B1C38547A38EF18435A88347A5
:10901000640093F707048DCB03468400938541A930
:10902000138501C6EFF0EF9E938741AD23AAF1842B
:10903000EFF0EF9F83C771832304F4028347A402F8
:1090400093F7C70F2305F402B7870040094723832E
:10905000E7000DBF83C7A1839546638FD704994668
:109060006398D70683D78183130700043E84637413
:10907000F70013040004420441801379F40F95C3F0
:109080009387018584434A86138581B1A685EFF0D5
:109090004F9883D78183818F2694239CF18223A8C4
:1090A0008184B78700402380270303C72702134723
:1090B00007042381E70249BF8347340083C66184E4
:1090C00093F70708D58FA301F4002301E402ADBF95
:1090D00023000402DDBF2301E4022303E4005DB5A5
:1090E00083D7A1B1A18305476381E7080947638757
:1090F000E7088549814763F48700239CF1829387C1
:10910000818303D40700130700043E89637487003A
:109110001304000493870185844342044180A6859B
:109120001376F40F138581B1EFF0AF8E83570900EA
:10913000A294818F239CF18223A8918463810906E4
:10914000FD57238DF1821307F0FCB7870040238180
:10915000E702B787004009472383E700F2406244F3
:10916000D2444249B2490561828097170000938733
:10917000E73823A8F1848149C947B5BF9717000094
:109180009387C73523A8F184814993070002A5B7C7
:10919000938781B183D727002383F184014413741B
:1091A000F40FB787004023808702130700FC45B700
:1091B0009387718483C70700238CF1B03334800018
:1091C000F9BF938781B183D72700A383F184F9B7CF
:1091D0009377F7010947E395E7F603C7C1B1630148
:1091E000F70463ECE7008547E31CF7F4378700409A
:1091F0008347670293F7370799A09307100863081E
:10920000F70293072008E31DF7F2378700408347F2
:10921000A70293F7C70B93E727002305F702BDBF0B
:10922000378700408347A70293F73707FDB7378793
:1092300000408347670293F7C70B93E72700230398
:10924000F702A9BF238C01B095BF239C01B0094749
:10925000A28763738700894713940701418081B710
:1092600083476400858B8DC389472301F402C94776
:109270002305F402238A0182A38D0182A301040045
:1092800085472303F400D9BD9147E5BF011122CCE6
:1092900006CE26CA4AC84EC637940040834784008B
:1092A0008344940093F7F70F13F70701630C074209
:1092B0008347940093F4F40F9D88C18B6399073220
:1092C00099C889476384F42CF2406244D2444249ED
:1092D000B249056182808347F40913892184A18BF7
:1092E0006382072883C7C1BD2381F18483C7D1BDB1
:1092F000238EF18283D721BE2390F18483D7E1BDF1
:109300002392F18483D701BE239FF1828347090012
:1093100093F70706639B07149387C18383C70700EE
:109320002D4793F7F70F6362F71417170000130721
:10933000E7178A07BA979C43BA97828783D74184F5
:10934000A1830547638FE70409476384E7068147E4
:109350009304F00F83D601841387018463F4D7004C
:109360002390F184835707009306F003130400044D
:1093700063E6F60003540700420441809387818529
:1093800083A907001376F40F1385C1BDCE854E94D3
:10939000EFE03FE823AC81849307F00F6398F40279
:1093A000E9A0971700009387671523ACF184C9479C
:1093B00055B7971700009387671223ACF184930782
:1093C000000249BF83D741842383F1848347090086
:1093D00013870184E207E18763D5071683560700E8
:1093E0009307000463E6D70083570700C207C183D1
:1093F000035707001D8F2390E18437970040231EF9
:10940000F7089947230FF708379700408347F70974
:1094100093F7F707A30FF70845BD9387718483C7B8
:109420000700238EF1BC03D701848547E3F0E7FAF8
:109430002390F18461BF83D74184A383F18479B7FA
:109440000347090089477D8B6311F70283D7418465
:1094500093F7F70F99EB83D7E18393F7F70F638EB9
:10946000E70013072008638FE700B7970040154710
:10947000238FE708A38FE70841BF37970040A30376
:10948000F70AA9B7B79700402383070A81B70347B4
:10949000090089477D8BE31BF7F283D7418493F75B
:1094A000F70FE39507F283D7E18393F7F70F638113
:1094B000E70213072008E39AE7FA3797004083474B
:1094C000670A93F7C70F93E717002303F70AFDBD59
:1094D000379700408347770A93F7C70F93E7170042
:1094E00079BF238E01BC81B703470900239E01BCCD
:1094F00089477D8B631EF70083D7E18393F7F70FCE
:109500006380E702130720086388E7029304F00FE3
:1095100003D701848947E3F1E7E82390F184ADBDE7
:10952000B797004083C7770A8D8B0547E392E7FE24
:109530008547238EF1BCE9BFB797004083C7670A10
:10954000E5B783570700C207C18389EBB79700408F
:10955000239E07081947238FE7087DB5B79700407A
:10956000194709BFA30F04088357C407834709009D
:1095700093F7070699C7239001849387C18383C714
:10958000070083D70184E39107E8C9B78347740ACA
:10959000C18B8DCF03564408938581B5138501C6D1
:1095A0001376F60FEFE0FFC6938781B923AAF18403
:1095B000EFE0FFC783C771832312F40A8347640A6D
:1095C00093F7C70F93E727002303F40A3797004068
:1095D0008347770A93F7C70F93E72700A303F70A98
:1095E0008347770A93F7F707A303F70AF1B98DC802
:1095F0008947E39BF4CC8347640A93F7C70F23039F
:10960000F40A83C7618381C78547A38EF1843797A6
:1096100000408347670A93F7F7072303F70A6DB102
:1096200083D7018401499384018481E79947A30F7B
:10963000F40883C7218493F70706C1E383C7C18376
:1096400015476385E70819476399E70883D704003E
:10965000C207C183A9C383D704001307F00313090A
:1096600000046367F70003D9040042091359090194
:109670009387818580431376F90F1385C1BDA28539
:10968000EFE03FB983D704004A94B3872741239082
:10969000F18423AC8184B7970040239E270903C738
:1096A000E70913474700238FE70803C7E709137744
:1096B000C70F13672700238FE708379700408347BA
:1096C000E70993F7F707230FF708FDBE03C7618487
:1096D000B7970040A381E700CDB7B7970040239E1E
:1096E0000708E1BF13F7270009C789472304F400DF
:1096F000E1BE13F717007DDBA3830184238301847C
:10970000230F04088947A30FF4082303040AA303C3
:10971000F40AA30104008547D1BF83C7D1856396AE
:10972000071CB717004083A6870A11668548D18EAB
:1097300023A4D70A03A7070A6948130570F8518FB5
:1097400023A0E70A03D787018D451306500413674A
:109750000701239CE7003737004023071701231632
:1097600007012301A700A301B700A300C700834698
:10977000070093E686002300D70083C681846387B1
:10978000061683A6870A93E6062023A4D70A83A693
:10979000070A93E6062023A0D70A230717412316BA
:1097A00007412301A740A301B740A300C740834757
:1097B000074093E787002300F74003C7E18593073D
:1097C000900F63ECE70EB787004023800700A3816A
:1097D0000700371700408326470D7D761306F67F76
:1097E000F18E232AD70CB146A386D700938681B188
:1097F0002398D700938641A9239CD7009306900213
:109800002380D7008356A7017D5693E6060C231DBF
:10981000D700930600F8A380D7002383C7009D4696
:109820002381D70083C6170093E61600A380D700D4
:1098300083C601819307400863F1D708B7970040BA
:1098400091462380D7208356A70193E60602231D65
:10985000D70025472380E700A381070015472398F9
:10986000E7002399E70013070004F8CFF8D3138724
:10987000C1BD98D3138781B598D7138781B9F8C331
:10988000239E0708238F07080947A38FE708239221
:10989000070A2383070AA383E70A1147239AE700ED
:1098A000239BE7002384C7004D472381E700A38063
:1098B0000700130780FB2380E700238E0184B7276E
:1098C000004009472380E70037571D00130707C0F2
:1098D000D8C77D572383E70003C727001367170006
:1098E0002381E70011472380E700828003C30181C1
:1098F00093064008E313D3EC03A3870C096E33638C
:10990000C30123A4670C83A6070CB3E6C60123A0FA
:10991000D70C03A3470DFD76FD163373D30023AA9E
:10992000670C03A3070D056E3363C30123A8670CFF
:1099300003A3070CB376D30023A0D70C83D68701EB
:1099400093E60602239CD70089BD3971238F0184D9
:1099500023800186B7F507008547914670009385FF
:1099600045023145A38EF1842385F184A38A0182C7
:10997000238B01822384018423AC018023A00182F4
:1099800006DE22DC26DA4AD84ED652D456D25AD037
:109990005ECE62CC66CA6AC85529B2473717004006
:1099A00013063009BD8B3EC683461704630BD600F1
:1099B00003471704930610096385E6000D47639477
:1099C000E72E130750F82388E18081E78547238439
:1099D000F18403C701819307400863F2E702B717D8
:1099E0000040130770052380E704130780FA2380E3
:1099F000E7041307D0342394E7002380070413847B
:109A00000187B7F50700B1462286D11535453D29B6
:109A10001C407D576391E72A03294400184433779B
:109A2000E9006304F7066318F9289384C1A7A146E7
:109A30002686B7C50700354511299C40638F27034B
:109A4000DC40638C2703A1462686B7C50700314555
:109A5000F52ED84093578701B98F93C7F7FF93F737
:109A6000F70F81EF23AAE1869C401307400293F68B
:109A7000F70F6394E60023A8F186B7F50700914637
:109A800013868187F1153145D126938481809146D3
:109A90002686D14531455D2E9C4013D787013D8FE9
:109AA0001347F7FF1377F70F631E07203707F00000
:109AB0007D8FB70650006317D72013D9870013791D
:109AC0001900A583858B63840720B717004003A77F
:109AD000070CB706C0FFFD16758F23A0E70C03A780
:109AE000070DB706400097E9FFFF9389A96B558FD3
:109AF00023A8E70C014A138BC182A14AEF008073AF
:109B0000B3074B012380A700050AE3195AFF930707
:109B1000000723A2F18282996312051E83C7D185B3
:109B2000639D071EDD3E014A054B1389C1A7FD5BFE
:109B3000378C0040930C4008379D0040B73A0040F6
:109B4000854983C7D1856390671F631B0A02C1469D
:109B50001386C1A781453545D52C032749008327A6
:109B60000900F98F03278900F98F0327C900F98FAE
:109B700063987701238F0184A38E0184054A713E87
:109B800083C7D1856381071A914613868180D145A9
:109B900031456D2C984093578701B98F93C7F7FFD4
:109BA00093F7F70FE9E3B7F50700B1461386C1A7AE
:109BB000D1153145612C03C781809376070D93073A
:109BC0000004639FF6001C4493F6F70F638AE600D7
:109BD00093F707F0D98F23ACF1868547A38AF182EA
:109BE0009387C1A798471C44630FF706B717004037
:109BF000130770052380E704130780FA2380E70426
:109C000003C7470481460146136707022382E7041E
:109C10008145238007041145152C85660146B7E56B
:109C200007000545252409E9B7F50700B146138665
:109C30000187D1150945192C8146014681451145F9
:109C40003124B7170040130770052380E70413077A
:109C500080FA2380E70403C747041377F70D2382B4
:109C6000E704238007048146014681451145F92A0E
:109C7000B7170040130770052380E704130780FA25
:109C80002380E70403C7518301C77D572396E7026A
:109C9000B717004003C76704136717002383E7045F
:109CA0002380070401A0130740F82388E1800547BB
:109CB000E391E7D221BBB7F50700B14613860187D0
:109CC000D115D1B35C4013F917008583E5BBB717F5
:109CD000004003A7070CFD769386F67F758F23A0BF
:109CE000E70C03A7470D856693860680558F23AA48
:109CF000E70C97E9FFFF9389094AEDBB856A014AA2
:109D0000938AFA2B829919C5050AE3DD4AFFA38ECF
:109D1000018409BD82997DF511B5E30509E0E95794
:109D2000238FF184EDB783476C009D8B99C3EFF0CF
:109D30006FA283C7018163F8FC0083478D00CD8B40
:109D400099C3EFF0AFD483C75A40858B89C7A38FDF
:109D50003185EFE0FFFE83C75A00858B89C7A38F4B
:109D60000184EFE0FFFD3727004083476700858BC4
:109D7000E38907DC2303370183C7E1851307900FCD
:109D80006374F700A38E31858507238FF18455BB5B
:109D90002303048015472303E48001002302A480E9
:109DA000828083076480E3CE07FE230304808280E1
:109DB00083076480E3CE07FE0345448082808307E7
:109DC0006480E3CE07FE2302A4808280411126C472
:109DD0004AC24EC006C61377F50BAD47AA892E8935
:109DE00095446306F70019456537653F8D444E85F8
:109DF0004537FD59FD1463983401B240A24412491D
:109E0000824941018280135509011375F50F453FC1
:109E10002209CDB7011126CC06CEB7040800513770
:109E20001545BD37713769372AC6A53F3245937747
:109E3000150089EB136515001375F50FF240E24428
:109E400005618280FD14E9FC0145CDBF397126DC36
:109E50004ADA4ED85AD206DE52D656D45ED062CEF8
:109E6000AA892E8B3289B68422C637240040B7E7F0
:109E700000E07D5783AA070003AA470023A0E71844
:109E800023A2E718B7170040130770052380E704E3
:109E9000130780FA2380E70483C74704130C75FF78
:109EA000137CFC0FE2078546E187015763FA8601C0
:109EB0006308D5008946130700026313D5000157D4
:109EC000D98F93F7F70FB71B004011472382FB048C
:109ED0002303E4801305F00F653DE135094763680E
:109EE0008711B7050700DA9537870700795563F2C0
:109EF000E504B3879500636EF702370B0800A947A6
:109F000033EB65016398F90689E48144593D268560
:109F10000DA0DA8509455D3D05090345F9FFFD14EE
:109F2000050B713D81C49377FB0FFDF7E53569FDA6
:109F30007D55B7170040130770052380E70413070A
:109F400080FA2380E70403C74704418B2382E70498
:109F5000B7E700E023A0571123A247113244F25083
:109F6000E2545259C259325AA25A125B825B724C65
:109F700021618280A5476391F90685691309F00F75
:109F8000B3069900B3742B01B6941349F9FFB37467
:109F90009900856B33796901416B9387F9FFB3F7BA
:109FA000270199E363F8340193D94900C147E3E6F7
:109FB00037FFA1BF1305800D6388690113050002F7
:109FC0006384790113051008CA850935A1352DD19F
:109FD0004E99B3843441F9B7DA852D45C53BCA940F
:109FE000E30599F20509E933A30FA9FED5BFB147EF
:109FF000639FF90883C71B04130730086316F7042F
:10A00000B70708006362FB04B3079B003707100023
:10A0100063FCE702B7070800334BFB00DA852D45E8
:10A0200075339389F4FFE38204EE593393F73900D3
:10A0300091EB832604800327090093074900E397E7
:10A04000E6EC3E89CE84F1BFB717004003C7570442
:10A05000B70708001377070219E3B7870700795598
:10A06000E379FBEC33079B00E3E5E7ECDA852D456C
:10A07000B13BFD59FD14E38A34E91D3B93F73400ED
:10A08000F5FB832704801109232EF9FEE5B7B547B8
:10A090006391F90683C71B0413073008631CF7009C
:10A0A000B70708006368FB00B3079B003707100081
:10A0B000E3E2E7F6B717004003C75704B707080005
:10A0C0001377070219E3B78707007955E373FBE6B7
:10A0D00033079B00E3EFE7E4DA852D45C539CA94E1
:10A0E000E30599E2F131834744800509A30FF9FEA6
:10A0F000C5BF9387F9FF93F7F70F636FF70883C71F
:10A100001B0413073008631FF70437070800636B4D
:10A11000EB04B3079B00B706100063F5D704334B7D
:10A12000EB0089476393F9068980D549E38F04DC06
:10A13000DA850945613911090327C9FF91472320B1
:10A14000E48003076480E34E07FE23033481FD1798
:10A15000EDFBFD14110B81C49377FB0FE9FF5D3913
:10A1600071F5F9B3B717004003C75704B7070800E4
:10A170001377070219E3B78707007955E37BFBDA0A
:10A1800033079B00E3FFE7F86DB38547E398F9E8F1
:10A190000569C1697D19EDB399476391F904B70564
:10A1A0000800B365BB002D45153181448D4BA14995
:10A1B000013163967401832704802320F90085040C
:10A1C000E39834FF8327048013172B01635507009E
:10A1D0002312F9001DBB2322F90005BB9D4763999B
:10A1E000F90281451305B004D536BD44232009008A
:10A1F00023220900FD596D3E93F77400CA9703C7E7
:10A200000700FD14398D2380A700E39634FFF5B9CC
:10A21000A147E38CF9CE9147639AF90013056006D4
:10A22000853E413613059009A536C5B1E38F09CCAB
:10A23000F154E9B94111970700009387E73322C42D
:10A24000804306C61C5C95EB61459528B737CDABBE
:10A2500008DC9387E7301CC1B7176DE69387472367
:10A260005CC1B7E705009387C7EE1CC5AD47231651
:10A27000F5000547814718C95CC9105C3787954CC4
:10A28000B7F75158144A484A1307D7F29387D74271
:10A29000B387F602B24022443305E5023E95B38708
:10A2A000E60233B7E6029386170014CA2A9733B53D
:10A2B000F6003A9548CA0605058141018280970754
:10A2C00000009387672BAA85884309A0011126CA3D
:10A2D00093843500F19806CE22CC4AC84EC6A1041C
:10A2E000B14763F1F404B14463E0B4042A89D1288E
:10A2F0009387418698433A8431E0938781869C43D3
:10A3000091E781454A85512823A4A186A6854A85DF
:10A310006920FD5963173507B1472320F9004A85A5
:10A32000552029A0E3D204FCB1471CC10145F240ED
:10A330006244D2444249B249056182801C40858F03
:10A3400063CE0702AD4663F6F6001CC03E9404C01F
:10A3500031A05C406312870223A2F1864A859D20CA
:10A360001305B4009307440061993307F54061D3A6
:10A370003A94898F1CC065BF5CC3CDB7228740402B
:10A38000A5BF130435007198E30385FCB305A44011
:10A390004A852120E31D35FB41B7411122C42A849F
:10A3A0002E8523A201D606C63928FD576317F5006E
:10A3B000938741D69C4391C31CC0B24022444101C3
:10A3C0008280828082809387C1869C4391C73E951C
:10A3D00023A6A1863E858280938781D63E9523A6BB
:10A3E000A1863E858280000010DFFFFF1CE9FFFF91
:10A3F000E0E3FFFFB8E2FFFFE8DFFFFF76E7FFFFE4
:10A4000042E6FFFF94E4FFFF8AE3FFFF58E1FFFF0E
:10A410008AE8FFFF90DFFFFF90DFFFFF90DFFFFF85
:10A4200090DFFFFF90DFFFFF90DFFFFF90DFFFFF78
:10A4300090DFFFFF90DFFFFF90DFFFFF90DFFFFF68
:10A4400090DFFFFF90DFFFFF90DFFFFF90DFFFFF58
:10A4500090DFFFFF90DFFFFF90DFFFFF90DFFFFF48
:10A4600090DFFFFF90DFFFFF90DFFFFF90DFFFFF38
:10A4700090DFFFFF90DFFFFFD6E8FFFFCEEDFFFF8D
:10A4800054EDFFFFC4ECFFFFC4ECFFFFC4ECFFFF83
:10A4900014EDFFFF64ECFFFFC4ECFFFF34EDFFFFA2
:10A4A00046EDFFFFC8EDFFFF40F0FFFF98EFFFFF15
:10A4B000C2EFFFFFE6EFFFFFC2EFFFFF1CEFFFFF62
:10A4C00094EEFFFFC2EFFFFF72EFFFFF8EEFFFFF83
:10A4D0003AF0FFFF24EFFFFF090220000101008096
:10A4E000320904000002FF80550007058202400087
:10A4F000000705020240000012011001FF805540D4
:10A50000861AE05500230000000100000000000052
:10A51000000000000000000000000000000000003B
:10A52000000000000000000000000000000000002B
:10A53000000000000000000000000000000000001B
:10A54000000000000000000000000000000000000B
:10A5500000000000000000000000000000000000FB
:10A5600000000000000000000000000000000000EB
:10A570000002030084240020A9BDF9F3A9BDF9F36A
:10A58000A9BDF9F3A9BDF9F3A9BDF9F3A9BDF9F383
:10A59000A9BDF9F3A9BDF9F3A9BDF9F3A9BDF9F373
:10A5A000A9BDF9F3A9BDF9F3A9BDF9F3A9BDF9F363
:10A5B000A9BDF9F3A9BDF9F3A9BDF9F3A9BDF9F353
:00000001FF
